:100000000C9434000C9451000C9451000C94510049
:100010000C9451000C9451000C9451000C9451001C
:100020000C9451000C9451000C9451000C9451000C
:100030000C9451000C9451000C9451000C945100FC
:100040000C9451000C9451000C9451000C945100EC
:100050000C9451000C9451000C9451000C945100DC
:100060000C9451000C94510011241FBECFEFD8E026
:10007000DEBFCDBF11E0A0E0B1E0E6EEF8E002C0E7
:1000800005900D92AE32B107D9F721E0AEE2B1E0B2
:1000900001C01D92A433B207E1F70E942B010C941A
:1000A00071040C9400001092B9008CE08093B800A9
:1000B0000895CF93DF93ECEBF0E024EAA9EBB0E0F6
:1000C000CBEBD0E034E844E9208390819923ECF72E
:1000D0009C91987F983011F09031B1F788833083EC
:1000E00090819923ECF79C91987F903211F098358C
:1000F00029F44083908194FDFDCFE6CFDF91CF912D
:10010000089584E98093BC00ECEBF0E0808184FDED
:10011000FDCF08958093BB0084E88093BC00ECEB96
:10012000F0E080818823ECF79091B900987F81E01E
:10013000983209F480E0089584EC8093BC00ECEBE5
:10014000F0E080818823ECF78091BB00089584E87B
:100150008093BC00ECEBF0E080818823ECF7809189
:10016000BB0008958A3041F4E0ECF0E0908195FF07
:10017000FDCF9DE09093C600E0ECF0E0908195FF0C
:10018000FDCF8093C60080E090E008958CE30E944C
:10019000590080E00E948A0080E70E948A000E9445
:1001A00081008CE30E94590081E00E948A0080E275
:1001B0000E948A000E9481008CE30E94590082E024
:1001C0000E948A0080E00E948A000E9481000895B7
:1001D0000F931F93CF93DF938C018CE30E94590000
:1001E00083E00E948A008DE30E9459000E949C00D7
:1001F000C82FD0E0DC2FCC270E949C00C82BF80130
:10020000D183C0830E949C00C82FD0E0DC2FCC2774
:100210000E949C00C82BF801D383C2830E949C00DB
:10022000C82FD0E0DC2FCC270E94A700C82BF801F4
:10023000D583C4830E948100DF91CF911F910F91DC
:10024000089588E18093C10086E08093C20083E333
:100250008093C4000895CF93DF9300D000D000D0E6
:10026000CDB7DEB780E091E090933101809330010B
:100270000E9421010E9453000E94C6002FEF80E7D8
:1002800092E0215080409040E1F700C000008EE0F5
:1002900091E00E948C0100E010E00F2EFBE1EF2EB8
:1002A000F1E0FF2EF02DCE0101960E94E8006801DA
:1002B0002FEFC21AD20A1F930F938A818F938981DD
:1002C0008F93FF92EF920E9476018FEF94E32CE0E0
:1002D000815090402040E1F700C000000F900F9047
:1002E0000F900F900F900F908601DDCFA0E0B0E04F
:1002F000ECE7F1E00C944A04AE014B5F5F4FFA016A
:1003000061917191AF0180913001909131010E9412
:10031000BC01E2E00C9466040F931F93CF93DF932C
:10032000E0913001F0913101238121FF1BC08C014C
:10033000D0E0C0E0F80181918F01609130017091AF
:100340003101DB011896ED91FC911997882331F06A
:100350000995892B79F3DFEFCFEFECCF8AE0099590
:10036000892B19F08FEF9FEF02C08D2F9C2FDF910B
:10037000CF911F910F910895ACE0B0E0E2ECF1E075
:100380000C943A047C016B018A01FC0117821682ED
:10039000838181FFBDC1CE0101964C01F70193819C
:1003A000F60193FD859193FF81916F01882309F4F4
:1003B000ABC1853239F493FD859193FF81916F0133
:1003C000853229F4B70190E00E94A403E7CF512CB5
:1003D000312C20E02032A0F48B3269F030F48032EE
:1003E00059F0833269F420612CC08D3239F08033AA
:1003F00039F4216026C02260246023C0286021C017
:1004000027FD27C030ED380F3A3078F426FF06C0BC
:10041000FAE05F9E300D1124532E13C08AE0389EFF
:10042000300D1124332E20620CC08E3221F426FDB3
:100430006BC1206406C08C3611F4206802C0883677
:1004400041F4F60193FD859193FF81916F01811134
:10045000C1CF982F9F7D9554933028F40C5F1F4F88
:10046000FFE3F9830DC0833631F0833771F08335B4
:1004700009F05BC022C0F801808189830E5F1F4FA5
:1004800044244394512C540115C03801F2E06F0EFE
:10049000711CF801A080B18026FF03C0652D70E0BB
:1004A00002C06FEF7FEFC5012C870E9499032C01DA
:1004B00083012C852F77222E17C03801F2E06F0EB2
:1004C000711CF801A080B18026FF03C0652D70E08B
:1004D00002C06FEF7FEFC5012C870E948E032C01B5
:1004E0002C852068222E830123FC1BC0832D90E0E5
:1004F00048165906B0F4B70180E290E00E94A403C8
:100500003A94F4CFF50127FC859127FE81915F0194
:10051000B70190E00E94A40331103A94F1E04F1A21
:1005200051084114510471F7E5C0843611F0893641
:1005300039F5F80127FF07C06081718182819381BD
:100540000C5F1F4F08C060817181072E000C880B63
:10055000990B0E5F1F4F2F76722E97FF09C0909553
:100560008095709561957F4F8F4F9F4F2068722EB9
:100570002AE030E0A4010E94DC03A82EA81844C0A1
:10058000853729F42F7EB22E2AE030E025C0F22FE5
:10059000F97FBF2E8F36C1F018F4883579F0B4C0DA
:1005A000803719F0883721F0AFC02F2F2061B22E8D
:1005B000B4FE0DC08B2D8460B82E09C024FF0AC084
:1005C0009F2F9660B92E06C028E030E005C020E1DC
:1005D00030E002C020E132E0F801B7FE07C06081E0
:1005E0007181828193810C5F1F4F06C06081718190
:1005F00080E090E00E5F1F4FA4010E94DC03A82E54
:10060000A818FB2DFF777F2E76FE0BC0372D3E7F7F
:10061000A51450F474FE0AC072FC08C0372D3E7E4B
:1006200005C0BA2C372D03C0BA2C01C0B52C34FF3D
:100630000DC0FE01EA0DF11D8081803311F4397E79
:1006400009C032FF06C0B394B39404C0832F8678E8
:1006500009F0B39433FD13C030FF06C05A2CB31415
:1006600018F4530C5B18B32CB31468F4B70180E290
:1006700090E03C870E94A403B3943C85F5CFB3146B
:1006800010F43B1801C0312C34FF12C0B70180E3D5
:1006900090E03C870E94A4033C8532FF17C031FDE7
:1006A00003C088E790E002C088E590E0B7010CC085
:1006B000832F867859F031FF02C08BE201C080E2BF
:1006C00037FD8DE2B70190E00E94A403A51438F431
:1006D000B70180E390E00E94A4035A94F7CFAA9454
:1006E000F401EA0DF11D8081B70190E00E94A4039E
:1006F000A110F5CF332009F451CEB70180E290E08C
:100700000E94A4033A94F6CFF7018681978102C034
:100710008FEF9FEF2C96E2E10C945604FC010590BC
:10072000615070400110D8F7809590958E0F9F1FF3
:100730000895FC016150704001900110D8F7809538
:1007400090958E0F9F1F08950F931F93CF93DF9364
:10075000FB01238121FD03C08FEF9FEF28C022FF03
:1007600016C046815781248135814217530744F4CE
:10077000A081B1819D012F5F3F4F318320838C93F6
:10078000268137812F5F3F4F3783268310C0EB01CF
:10079000092F182F0084F185E02D0995892BE1F6AA
:1007A0008E819F8101969F838E83812F902FDF9171
:1007B000CF911F910F910895FA01AA27283051F186
:1007C000203181F1E8946F936E7F6E5F7F4F8F4F82
:1007D0009F4FAF4FB1E03ED0B4E03CD0670F781FE1
:1007E000891F9A1FA11D680F791F8A1F911DA11DC6
:1007F0006A0F711D811D911DA11D20D009F46894FF
:100800003F912AE0269F11243019305D3193DEF6A6
:10081000CF010895462F4770405D4193B3E00FD05C
:10082000C9F7F6CF462F4F70405D4A3318F0495D47
:1008300031FD4052419302D0A9F7EACFB4E0A6952A
:100840009795879577956795BA95C9F7009761054C
:10085000710508959B01AC010A2E069457954795A2
:1008600037952795BA95C9F7620F731F841F951F97
:10087000A01D08952F923F924F925F926F927F92A8
:100880008F929F92AF92BF92CF92DF92EF92FF92A0
:100890000F931F93CF93DF93CDB7DEB7CA1BDB0B4C
:1008A0000FB6F894DEBF0FBECDBF09942A883988F1
:1008B00048885F846E847D848C849B84AA84B984F8
:1008C000C884DF80EE80FD800C811B81AA81B98104
:1008D000CE0FD11D0FB6F894DEBF0FBECDBFED0118
:0608E0000895F894FFCF1B
:1008E6000000000300000000B20000000000686580
:1008F6006C6C6F20776F726C642100583A20256407
:0E090600097C0972656164202325750A0000D2
:00000001FF
